{
  "_format": "hh-sol-artifact-1",
  "contractName": "Autograph",
  "sourceName": "contracts/Autograph.sol",
  "abi": [
    {
      "anonymous": false,
      "inputs": [
        {
          "indexed": true,
          "internalType": "address",
          "name": "owner",
          "type": "address"
        },
        {
          "indexed": true,
          "internalType": "address",
          "name": "approved",
          "type": "address"
        },
        {
          "indexed": true,
          "internalType": "uint256",
          "name": "tokenId",
          "type": "uint256"
        }
      ],
      "name": "Approval",
      "type": "event"
    },
    {
      "anonymous": false,
      "inputs": [
        {
          "indexed": true,
          "internalType": "address",
          "name": "owner",
          "type": "address"
        },
        {
          "indexed": true,
          "internalType": "address",
          "name": "operator",
          "type": "address"
        },
        {
          "indexed": false,
          "internalType": "bool",
          "name": "approved",
          "type": "bool"
        }
      ],
      "name": "ApprovalForAll",
      "type": "event"
    },
    {
      "anonymous": false,
      "inputs": [
        {
          "indexed": true,
          "internalType": "address",
          "name": "recipient",
          "type": "address"
        },
        {
          "indexed": true,
          "internalType": "address",
          "name": "signer",
          "type": "address"
        }
      ],
      "name": "Sign",
      "type": "event"
    },
    {
      "anonymous": false,
      "inputs": [
        {
          "indexed": true,
          "internalType": "address",
          "name": "from",
          "type": "address"
        },
        {
          "indexed": true,
          "internalType": "address",
          "name": "to",
          "type": "address"
        },
        {
          "indexed": true,
          "internalType": "uint256",
          "name": "tokenId",
          "type": "uint256"
        }
      ],
      "name": "Transfer",
      "type": "event"
    },
    {
      "inputs": [
        {
          "internalType": "address",
          "name": "to",
          "type": "address"
        },
        {
          "internalType": "uint256",
          "name": "tokenId",
          "type": "uint256"
        }
      ],
      "name": "approve",
      "outputs": [],
      "stateMutability": "nonpayable",
      "type": "function"
    },
    {
      "inputs": [
        {
          "internalType": "address",
          "name": "owner",
          "type": "address"
        }
      ],
      "name": "balanceOf",
      "outputs": [
        {
          "internalType": "uint256",
          "name": "",
          "type": "uint256"
        }
      ],
      "stateMutability": "view",
      "type": "function"
    },
    {
      "inputs": [
        {
          "internalType": "uint256",
          "name": "tokenId",
          "type": "uint256"
        }
      ],
      "name": "getApproved",
      "outputs": [
        {
          "internalType": "address",
          "name": "",
          "type": "address"
        }
      ],
      "stateMutability": "view",
      "type": "function"
    },
    {
      "inputs": [
        {
          "internalType": "address",
          "name": "",
          "type": "address"
        }
      ],
      "name": "hasMinted",
      "outputs": [
        {
          "internalType": "bool",
          "name": "",
          "type": "bool"
        }
      ],
      "stateMutability": "view",
      "type": "function"
    },
    {
      "inputs": [
        {
          "internalType": "address",
          "name": "",
          "type": "address"
        },
        {
          "internalType": "address",
          "name": "",
          "type": "address"
        }
      ],
      "name": "hasSignedAddress",
      "outputs": [
        {
          "internalType": "bool",
          "name": "",
          "type": "bool"
        }
      ],
      "stateMutability": "view",
      "type": "function"
    },
    {
      "inputs": [
        {
          "internalType": "address",
          "name": "owner",
          "type": "address"
        },
        {
          "internalType": "address",
          "name": "operator",
          "type": "address"
        }
      ],
      "name": "isApprovedForAll",
      "outputs": [
        {
          "internalType": "bool",
          "name": "",
          "type": "bool"
        }
      ],
      "stateMutability": "view",
      "type": "function"
    },
    {
      "inputs": [],
      "name": "lastMintedId",
      "outputs": [
        {
          "internalType": "uint256",
          "name": "",
          "type": "uint256"
        }
      ],
      "stateMutability": "view",
      "type": "function"
    },
    {
      "inputs": [],
      "name": "mint",
      "outputs": [],
      "stateMutability": "nonpayable",
      "type": "function"
    },
    {
      "inputs": [],
      "name": "name",
      "outputs": [
        {
          "internalType": "string",
          "name": "",
          "type": "string"
        }
      ],
      "stateMutability": "view",
      "type": "function"
    },
    {
      "inputs": [
        {
          "internalType": "uint256",
          "name": "tokenId",
          "type": "uint256"
        }
      ],
      "name": "ownerOf",
      "outputs": [
        {
          "internalType": "address",
          "name": "",
          "type": "address"
        }
      ],
      "stateMutability": "view",
      "type": "function"
    },
    {
      "inputs": [
        {
          "internalType": "address",
          "name": "from",
          "type": "address"
        },
        {
          "internalType": "address",
          "name": "to",
          "type": "address"
        },
        {
          "internalType": "uint256",
          "name": "tokenId",
          "type": "uint256"
        }
      ],
      "name": "safeTransferFrom",
      "outputs": [],
      "stateMutability": "nonpayable",
      "type": "function"
    },
    {
      "inputs": [
        {
          "internalType": "address",
          "name": "from",
          "type": "address"
        },
        {
          "internalType": "address",
          "name": "to",
          "type": "address"
        },
        {
          "internalType": "uint256",
          "name": "tokenId",
          "type": "uint256"
        },
        {
          "internalType": "bytes",
          "name": "_data",
          "type": "bytes"
        }
      ],
      "name": "safeTransferFrom",
      "outputs": [],
      "stateMutability": "nonpayable",
      "type": "function"
    },
    {
      "inputs": [
        {
          "internalType": "address",
          "name": "operator",
          "type": "address"
        },
        {
          "internalType": "bool",
          "name": "approved",
          "type": "bool"
        }
      ],
      "name": "setApprovalForAll",
      "outputs": [],
      "stateMutability": "nonpayable",
      "type": "function"
    },
    {
      "inputs": [
        {
          "internalType": "address",
          "name": "_recipient",
          "type": "address"
        }
      ],
      "name": "sign",
      "outputs": [],
      "stateMutability": "nonpayable",
      "type": "function"
    },
    {
      "inputs": [
        {
          "internalType": "address",
          "name": "",
          "type": "address"
        },
        {
          "internalType": "uint256",
          "name": "",
          "type": "uint256"
        }
      ],
      "name": "signed",
      "outputs": [
        {
          "internalType": "address",
          "name": "",
          "type": "address"
        }
      ],
      "stateMutability": "view",
      "type": "function"
    },
    {
      "inputs": [
        {
          "internalType": "address",
          "name": "",
          "type": "address"
        },
        {
          "internalType": "uint256",
          "name": "",
          "type": "uint256"
        }
      ],
      "name": "signers",
      "outputs": [
        {
          "internalType": "address",
          "name": "",
          "type": "address"
        }
      ],
      "stateMutability": "view",
      "type": "function"
    },
    {
      "inputs": [
        {
          "internalType": "bytes4",
          "name": "interfaceId",
          "type": "bytes4"
        }
      ],
      "name": "supportsInterface",
      "outputs": [
        {
          "internalType": "bool",
          "name": "",
          "type": "bool"
        }
      ],
      "stateMutability": "view",
      "type": "function"
    },
    {
      "inputs": [],
      "name": "symbol",
      "outputs": [
        {
          "internalType": "string",
          "name": "",
          "type": "string"
        }
      ],
      "stateMutability": "view",
      "type": "function"
    },
    {
      "inputs": [
        {
          "internalType": "uint256",
          "name": "_tokenId",
          "type": "uint256"
        }
      ],
      "name": "tokenURI",
      "outputs": [
        {
          "internalType": "string",
          "name": "",
          "type": "string"
        }
      ],
      "stateMutability": "view",
      "type": "function"
    },
    {
      "inputs": [
        {
          "internalType": "address",
          "name": "from",
          "type": "address"
        },
        {
          "internalType": "address",
          "name": "to",
          "type": "address"
        },
        {
          "internalType": "uint256",
          "name": "tokenId",
          "type": "uint256"
        }
      ],
      "name": "transferFrom",
      "outputs": [],
      "stateMutability": "nonpayable",
      "type": "function"
    }
  ],
  "bytecode": "0x60806040523480156200001157600080fd5b506040518060400160405280600981526020017f4175746f677261706800000000000000000000000000000000000000000000008152506040518060400160405280600981526020017f4155544f47524150480000000000000000000000000000000000000000000000815250816000908051906020019062000096929190620000b8565b508060019080519060200190620000af929190620000b8565b505050620001cd565b828054620000c69062000168565b90600052602060002090601f016020900481019282620000ea576000855562000136565b82601f106200010557805160ff191683800117855562000136565b8280016001018555821562000136579182015b828111156200013557825182559160200191906001019062000118565b5b50905062000145919062000149565b5090565b5b80821115620001645760008160009055506001016200014a565b5090565b600060028204905060018216806200018157607f821691505b602082108114156200019857620001976200019e565b5b50919050565b7f4e487b7100000000000000000000000000000000000000000000000000000000600052602260045260246000fd5b612b3580620001dd6000396000f3fe608060405234801561001057600080fd5b506004361061012c5760003560e01c80636352211e116100ad578063b88d4fde11610071578063b88d4fde14610355578063c87b56dd14610371578063e1326b34146103a1578063e985e9c5146103d1578063f71be837146104015761012c565b80636352211e1461028b57806370a08231146102bb578063909318f4146102eb57806395d89b411461031b578063a22cb465146103395761012c565b806323b872dd116100f457806323b872dd146101d557806324e5bfa7146101f157806338e21cce1461022157806342842e0e14610251578063620a23581461026d5761012c565b806301ffc9a71461013157806306fdde0314610161578063081812fc1461017f578063095ea7b3146101af5780631249c58b146101cb575b600080fd5b61014b60048036038101906101469190611d1e565b61041d565b60405161015891906120f2565b60405180910390f35b6101696104ff565b604051610176919061210d565b60405180910390f35b61019960048036038101906101949190611d70565b610591565b6040516101a6919061208b565b60405180910390f35b6101c960048036038101906101c49190611ce2565b610616565b005b6101d361072e565b005b6101ef60048036038101906101ea9190611bdc565b610840565b005b61020b60048036038101906102069190611ce2565b6108a0565b604051610218919061208b565b60405180910390f35b61023b60048036038101906102369190611b77565b6108ee565b60405161024891906120f2565b60405180910390f35b61026b60048036038101906102669190611bdc565b61090e565b005b61027561092e565b604051610282919061234f565b60405180910390f35b6102a560048036038101906102a09190611d70565b610934565b6040516102b2919061208b565b60405180910390f35b6102d560048036038101906102d09190611b77565b6109e6565b6040516102e2919061234f565b60405180910390f35b61030560048036038101906103009190611ba0565b610a9e565b60405161031291906120f2565b60405180910390f35b610323610acd565b604051610330919061210d565b60405180910390f35b610353600480360381019061034e9190611ca6565b610b5f565b005b61036f600480360381019061036a9190611c2b565b610ce0565b005b61038b60048036038101906103869190611d70565b610d42565b604051610398919061210d565b60405180910390f35b6103bb60048036038101906103b69190611ce2565b610da9565b6040516103c8919061208b565b60405180910390f35b6103eb60048036038101906103e69190611ba0565b610df7565b6040516103f891906120f2565b60405180910390f35b61041b60048036038101906104169190611b77565b610e8b565b005b60007f80ac58cd000000000000000000000000000000000000000000000000000000007bffffffffffffffffffffffffffffffffffffffffffffffffffffffff1916827bffffffffffffffffffffffffffffffffffffffffffffffffffffffff191614806104e857507f5b5e139f000000000000000000000000000000000000000000000000000000007bffffffffffffffffffffffffffffffffffffffffffffffffffffffff1916827bffffffffffffffffffffffffffffffffffffffffffffffffffffffff1916145b806104f857506104f7826111fc565b5b9050919050565b60606000805461050e90612538565b80601f016020809104026020016040519081016040528092919081815260200182805461053a90612538565b80156105875780601f1061055c57610100808354040283529160200191610587565b820191906000526020600020905b81548152906001019060200180831161056a57829003601f168201915b5050505050905090565b600061059c82611266565b6105db576040517f08c379a00000000000000000000000000000000000000000000000000000000081526004016105d2906122af565b60405180910390fd5b6004600083815260200190815260200160002060009054906101000a900473ffffffffffffffffffffffffffffffffffffffff169050919050565b600061062182610934565b90508073ffffffffffffffffffffffffffffffffffffffff168373ffffffffffffffffffffffffffffffffffffffff161415610692576040517f08c379a0000000000000000000000000000000000000000000000000000000008152600401610689906122ef565b60405180910390fd5b8073ffffffffffffffffffffffffffffffffffffffff166106b16112d2565b73ffffffffffffffffffffffffffffffffffffffff1614806106e057506106df816106da6112d2565b610df7565b5b61071f576040517f08c379a00000000000000000000000000000000000000000000000000000000081526004016107169061222f565b60405180910390fd5b61072983836112da565b505050565b60001515600660003373ffffffffffffffffffffffffffffffffffffffff1673ffffffffffffffffffffffffffffffffffffffff16815260200190815260200160002060009054906101000a900460ff161515146107c1576040517f08c379a00000000000000000000000000000000000000000000000000000000081526004016107b89061212f565b60405180910390fd5b60006001600a546107d291906123f8565b905080600a819055506107e53382611393565b6001600660003373ffffffffffffffffffffffffffffffffffffffff1673ffffffffffffffffffffffffffffffffffffffff16815260200190815260200160002060006101000a81548160ff02191690831515021790555050565b61085161084b6112d2565b82611561565b610890576040517f08c379a00000000000000000000000000000000000000000000000000000000081526004016108879061232f565b60405180910390fd5b61089b83838361163f565b505050565b600960205281600052604060002081815481106108bc57600080fd5b906000526020600020016000915091509054906101000a900473ffffffffffffffffffffffffffffffffffffffff1681565b60066020528060005260406000206000915054906101000a900460ff1681565b61092983838360405180602001604052806000815250610ce0565b505050565b600a5481565b6000806002600084815260200190815260200160002060009054906101000a900473ffffffffffffffffffffffffffffffffffffffff169050600073ffffffffffffffffffffffffffffffffffffffff168173ffffffffffffffffffffffffffffffffffffffff1614156109dd576040517f08c379a00000000000000000000000000000000000000000000000000000000081526004016109d49061226f565b60405180910390fd5b80915050919050565b60008073ffffffffffffffffffffffffffffffffffffffff168273ffffffffffffffffffffffffffffffffffffffff161415610a57576040517f08c379a0000000000000000000000000000000000000000000000000000000008152600401610a4e9061224f565b60405180910390fd5b600360008373ffffffffffffffffffffffffffffffffffffffff1673ffffffffffffffffffffffffffffffffffffffff168152602001908152602001600020549050919050565b60076020528160005260406000206020528060005260406000206000915091509054906101000a900460ff1681565b606060018054610adc90612538565b80601f0160208091040260200160405190810160405280929190818152602001828054610b0890612538565b8015610b555780601f10610b2a57610100808354040283529160200191610b55565b820191906000526020600020905b815481529060010190602001808311610b3857829003601f168201915b5050505050905090565b610b676112d2565b73ffffffffffffffffffffffffffffffffffffffff168273ffffffffffffffffffffffffffffffffffffffff161415610bd5576040517f08c379a0000000000000000000000000000000000000000000000000000000008152600401610bcc906121af565b60405180910390fd5b8060056000610be26112d2565b73ffffffffffffffffffffffffffffffffffffffff1673ffffffffffffffffffffffffffffffffffffffff16815260200190815260200160002060008473ffffffffffffffffffffffffffffffffffffffff1673ffffffffffffffffffffffffffffffffffffffff16815260200190815260200160002060006101000a81548160ff0219169083151502179055508173ffffffffffffffffffffffffffffffffffffffff16610c8f6112d2565b73ffffffffffffffffffffffffffffffffffffffff167f17307eab39ab6107e8899845ad3d59bd9653f200f220920489ca2b5937696c3183604051610cd491906120f2565b60405180910390a35050565b610cf1610ceb6112d2565b83611561565b610d30576040517f08c379a0000000000000000000000000000000000000000000000000000000008152600401610d279061232f565b60405180910390fd5b610d3c8484848461189b565b50505050565b6060600a54821115610d89576040517f08c379a0000000000000000000000000000000000000000000000000000000008152600401610d80906121ef565b60405180910390fd5b604051806060016040528060358152602001612acb603591399050919050565b60086020528160005260406000208181548110610dc557600080fd5b906000526020600020016000915091509054906101000a900473ffffffffffffffffffffffffffffffffffffffff1681565b6000600560008473ffffffffffffffffffffffffffffffffffffffff1673ffffffffffffffffffffffffffffffffffffffff16815260200190815260200160002060008373ffffffffffffffffffffffffffffffffffffffff1673ffffffffffffffffffffffffffffffffffffffff16815260200190815260200160002060009054906101000a900460ff16905092915050565b60001515600760003373ffffffffffffffffffffffffffffffffffffffff1673ffffffffffffffffffffffffffffffffffffffff16815260200190815260200160002060008373ffffffffffffffffffffffffffffffffffffffff1673ffffffffffffffffffffffffffffffffffffffff16815260200190815260200160002060009054906101000a900460ff16151514610f5b576040517f08c379a0000000000000000000000000000000000000000000000000000000008152600401610f529061230f565b60405180910390fd5b8073ffffffffffffffffffffffffffffffffffffffff163373ffffffffffffffffffffffffffffffffffffffff161415610fca576040517f08c379a0000000000000000000000000000000000000000000000000000000008152600401610fc19061220f565b60405180910390fd5b600860008273ffffffffffffffffffffffffffffffffffffffff1673ffffffffffffffffffffffffffffffffffffffff168152602001908152602001600020339080600181540180825580915050600190039060005260206000200160009091909190916101000a81548173ffffffffffffffffffffffffffffffffffffffff021916908373ffffffffffffffffffffffffffffffffffffffff160217905550600960003373ffffffffffffffffffffffffffffffffffffffff1673ffffffffffffffffffffffffffffffffffffffff168152602001908152602001600020819080600181540180825580915050600190039060005260206000200160009091909190916101000a81548173ffffffffffffffffffffffffffffffffffffffff021916908373ffffffffffffffffffffffffffffffffffffffff1602179055503373ffffffffffffffffffffffffffffffffffffffff168173ffffffffffffffffffffffffffffffffffffffff167fe93c26560595508140c84cf626a2c2023837227d1f91bd710aa4ee68495e76c460405160405180910390a36001600760003373ffffffffffffffffffffffffffffffffffffffff1673ffffffffffffffffffffffffffffffffffffffff16815260200190815260200160002060008373ffffffffffffffffffffffffffffffffffffffff1673ffffffffffffffffffffffffffffffffffffffff16815260200190815260200160002060006101000a81548160ff02191690831515021790555050565b60007f01ffc9a7000000000000000000000000000000000000000000000000000000007bffffffffffffffffffffffffffffffffffffffffffffffffffffffff1916827bffffffffffffffffffffffffffffffffffffffffffffffffffffffff1916149050919050565b60008073ffffffffffffffffffffffffffffffffffffffff166002600084815260200190815260200160002060009054906101000a900473ffffffffffffffffffffffffffffffffffffffff1673ffffffffffffffffffffffffffffffffffffffff1614159050919050565b600033905090565b816004600083815260200190815260200160002060006101000a81548173ffffffffffffffffffffffffffffffffffffffff021916908373ffffffffffffffffffffffffffffffffffffffff160217905550808273ffffffffffffffffffffffffffffffffffffffff1661134d83610934565b73ffffffffffffffffffffffffffffffffffffffff167f8c5be1e5ebec7d5bd14f71427d1e84f3dd0314c0f7b2291e5b200ac8c7c3b92560405160405180910390a45050565b600073ffffffffffffffffffffffffffffffffffffffff168273ffffffffffffffffffffffffffffffffffffffff161415611403576040517f08c379a00000000000000000000000000000000000000000000000000000000081526004016113fa9061228f565b60405180910390fd5b61140c81611266565b1561144c576040517f08c379a00000000000000000000000000000000000000000000000000000000081526004016114439061216f565b60405180910390fd5b611458600083836118f7565b6001600360008473ffffffffffffffffffffffffffffffffffffffff1673ffffffffffffffffffffffffffffffffffffffff16815260200190815260200160002060008282546114a891906123f8565b92505081905550816002600083815260200190815260200160002060006101000a81548173ffffffffffffffffffffffffffffffffffffffff021916908373ffffffffffffffffffffffffffffffffffffffff160217905550808273ffffffffffffffffffffffffffffffffffffffff16600073ffffffffffffffffffffffffffffffffffffffff167fddf252ad1be2c89b69c2b068fc378daa952ba7f163c4a11628f55a4df523b3ef60405160405180910390a45050565b600061156c82611266565b6115ab576040517f08c379a00000000000000000000000000000000000000000000000000000000081526004016115a2906121cf565b60405180910390fd5b60006115b683610934565b90508073ffffffffffffffffffffffffffffffffffffffff168473ffffffffffffffffffffffffffffffffffffffff16148061162557508373ffffffffffffffffffffffffffffffffffffffff1661160d84610591565b73ffffffffffffffffffffffffffffffffffffffff16145b8061163657506116358185610df7565b5b91505092915050565b8273ffffffffffffffffffffffffffffffffffffffff1661165f82610934565b73ffffffffffffffffffffffffffffffffffffffff16146116b5576040517f08c379a00000000000000000000000000000000000000000000000000000000081526004016116ac906122cf565b60405180910390fd5b600073ffffffffffffffffffffffffffffffffffffffff168273ffffffffffffffffffffffffffffffffffffffff161415611725576040517f08c379a000000000000000000000000000000000000000000000000000000000815260040161171c9061218f565b60405180910390fd5b6117308383836118f7565b61173b6000826112da565b6001600360008573ffffffffffffffffffffffffffffffffffffffff1673ffffffffffffffffffffffffffffffffffffffff168152602001908152602001600020600082825461178b919061244e565b925050819055506001600360008473ffffffffffffffffffffffffffffffffffffffff1673ffffffffffffffffffffffffffffffffffffffff16815260200190815260200160002060008282546117e291906123f8565b92505081905550816002600083815260200190815260200160002060006101000a81548173ffffffffffffffffffffffffffffffffffffffff021916908373ffffffffffffffffffffffffffffffffffffffff160217905550808273ffffffffffffffffffffffffffffffffffffffff168473ffffffffffffffffffffffffffffffffffffffff167fddf252ad1be2c89b69c2b068fc378daa952ba7f163c4a11628f55a4df523b3ef60405160405180910390a4505050565b6118a684848461163f565b6118b2848484846118fc565b6118f1576040517f08c379a00000000000000000000000000000000000000000000000000000000081526004016118e89061214f565b60405180910390fd5b50505050565b505050565b600061191d8473ffffffffffffffffffffffffffffffffffffffff16611a93565b15611a86578373ffffffffffffffffffffffffffffffffffffffff1663150b7a026119466112d2565b8786866040518563ffffffff1660e01b815260040161196894939291906120a6565b602060405180830381600087803b15801561198257600080fd5b505af19250505080156119b357506040513d601f19601f820116820180604052508101906119b09190611d47565b60015b611a36573d80600081146119e3576040519150601f19603f3d011682016040523d82523d6000602084013e6119e8565b606091505b50600081511415611a2e576040517f08c379a0000000000000000000000000000000000000000000000000000000008152600401611a259061214f565b60405180910390fd5b805181602001fd5b63150b7a0260e01b7bffffffffffffffffffffffffffffffffffffffffffffffffffffffff1916817bffffffffffffffffffffffffffffffffffffffffffffffffffffffff191614915050611a8b565b600190505b949350505050565b600080823b905060008111915050919050565b6000611ab9611ab48461238f565b61236a565b905082815260208101848484011115611ad157600080fd5b611adc8482856124f6565b509392505050565b600081359050611af381612a6e565b92915050565b600081359050611b0881612a85565b92915050565b600081359050611b1d81612a9c565b92915050565b600081519050611b3281612a9c565b92915050565b600082601f830112611b4957600080fd5b8135611b59848260208601611aa6565b91505092915050565b600081359050611b7181612ab3565b92915050565b600060208284031215611b8957600080fd5b6000611b9784828501611ae4565b91505092915050565b60008060408385031215611bb357600080fd5b6000611bc185828601611ae4565b9250506020611bd285828601611ae4565b9150509250929050565b600080600060608486031215611bf157600080fd5b6000611bff86828701611ae4565b9350506020611c1086828701611ae4565b9250506040611c2186828701611b62565b9150509250925092565b60008060008060808587031215611c4157600080fd5b6000611c4f87828801611ae4565b9450506020611c6087828801611ae4565b9350506040611c7187828801611b62565b925050606085013567ffffffffffffffff811115611c8e57600080fd5b611c9a87828801611b38565b91505092959194509250565b60008060408385031215611cb957600080fd5b6000611cc785828601611ae4565b9250506020611cd885828601611af9565b9150509250929050565b60008060408385031215611cf557600080fd5b6000611d0385828601611ae4565b9250506020611d1485828601611b62565b9150509250929050565b600060208284031215611d3057600080fd5b6000611d3e84828501611b0e565b91505092915050565b600060208284031215611d5957600080fd5b6000611d6784828501611b23565b91505092915050565b600060208284031215611d8257600080fd5b6000611d9084828501611b62565b91505092915050565b611da281612482565b82525050565b611db181612494565b82525050565b6000611dc2826123c0565b611dcc81856123d6565b9350611ddc818560208601612505565b611de581612628565b840191505092915050565b6000611dfb826123cb565b611e0581856123e7565b9350611e15818560208601612505565b611e1e81612628565b840191505092915050565b6000611e366017836123e7565b9150611e4182612639565b602082019050919050565b6000611e596032836123e7565b9150611e6482612662565b604082019050919050565b6000611e7c601c836123e7565b9150611e87826126b1565b602082019050919050565b6000611e9f6024836123e7565b9150611eaa826126da565b604082019050919050565b6000611ec26019836123e7565b9150611ecd82612729565b602082019050919050565b6000611ee5602c836123e7565b9150611ef082612752565b604082019050919050565b6000611f086013836123e7565b9150611f13826127a1565b602082019050919050565b6000611f2b6018836123e7565b9150611f36826127ca565b602082019050919050565b6000611f4e6038836123e7565b9150611f59826127f3565b604082019050919050565b6000611f71602a836123e7565b9150611f7c82612842565b604082019050919050565b6000611f946029836123e7565b9150611f9f82612891565b604082019050919050565b6000611fb76020836123e7565b9150611fc2826128e0565b602082019050919050565b6000611fda602c836123e7565b9150611fe582612909565b604082019050919050565b6000611ffd6029836123e7565b915061200882612958565b604082019050919050565b60006120206021836123e7565b915061202b826129a7565b604082019050919050565b6000612043600e836123e7565b915061204e826129f6565b602082019050919050565b60006120666031836123e7565b915061207182612a1f565b604082019050919050565b612085816124ec565b82525050565b60006020820190506120a06000830184611d99565b92915050565b60006080820190506120bb6000830187611d99565b6120c86020830186611d99565b6120d5604083018561207c565b81810360608301526120e78184611db7565b905095945050505050565b60006020820190506121076000830184611da8565b92915050565b600060208201905081810360008301526121278184611df0565b905092915050565b6000602082019050818103600083015261214881611e29565b9050919050565b6000602082019050818103600083015261216881611e4c565b9050919050565b6000602082019050818103600083015261218881611e6f565b9050919050565b600060208201905081810360008301526121a881611e92565b9050919050565b600060208201905081810360008301526121c881611eb5565b9050919050565b600060208201905081810360008301526121e881611ed8565b9050919050565b6000602082019050818103600083015261220881611efb565b9050919050565b6000602082019050818103600083015261222881611f1e565b9050919050565b6000602082019050818103600083015261224881611f41565b9050919050565b6000602082019050818103600083015261226881611f64565b9050919050565b6000602082019050818103600083015261228881611f87565b9050919050565b600060208201905081810360008301526122a881611faa565b9050919050565b600060208201905081810360008301526122c881611fcd565b9050919050565b600060208201905081810360008301526122e881611ff0565b9050919050565b6000602082019050818103600083015261230881612013565b9050919050565b6000602082019050818103600083015261232881612036565b9050919050565b6000602082019050818103600083015261234881612059565b9050919050565b6000602082019050612364600083018461207c565b92915050565b6000612374612385565b9050612380828261256a565b919050565b6000604051905090565b600067ffffffffffffffff8211156123aa576123a96125f9565b5b6123b382612628565b9050602081019050919050565b600081519050919050565b600081519050919050565b600082825260208201905092915050565b600082825260208201905092915050565b6000612403826124ec565b915061240e836124ec565b9250827fffffffffffffffffffffffffffffffffffffffffffffffffffffffffffffffff038211156124435761244261259b565b5b828201905092915050565b6000612459826124ec565b9150612464836124ec565b9250828210156124775761247661259b565b5b828203905092915050565b600061248d826124cc565b9050919050565b60008115159050919050565b60007fffffffff0000000000000000000000000000000000000000000000000000000082169050919050565b600073ffffffffffffffffffffffffffffffffffffffff82169050919050565b6000819050919050565b82818337600083830152505050565b60005b83811015612523578082015181840152602081019050612508565b83811115612532576000848401525b50505050565b6000600282049050600182168061255057607f821691505b60208210811415612564576125636125ca565b5b50919050565b61257382612628565b810181811067ffffffffffffffff82111715612592576125916125f9565b5b80604052505050565b7f4e487b7100000000000000000000000000000000000000000000000000000000600052601160045260246000fd5b7f4e487b7100000000000000000000000000000000000000000000000000000000600052602260045260246000fd5b7f4e487b7100000000000000000000000000000000000000000000000000000000600052604160045260246000fd5b6000601f19601f8301169050919050565b7f796f7520616c7265616479206861766520612063617264000000000000000000600082015250565b7f4552433732313a207472616e7366657220746f206e6f6e20455243373231526560008201527f63656976657220696d706c656d656e7465720000000000000000000000000000602082015250565b7f4552433732313a20746f6b656e20616c7265616479206d696e74656400000000600082015250565b7f4552433732313a207472616e7366657220746f20746865207a65726f2061646460008201527f7265737300000000000000000000000000000000000000000000000000000000602082015250565b7f4552433732313a20617070726f766520746f2063616c6c657200000000000000600082015250565b7f4552433732313a206f70657261746f7220717565727920666f72206e6f6e657860008201527f697374656e7420746f6b656e0000000000000000000000000000000000000000602082015250565b7f746f6b656e20646f65736e277420657869737400000000000000000000000000600082015250565b7f63616e2774207369676e20796f7572206f776e20636172640000000000000000600082015250565b7f4552433732313a20617070726f76652063616c6c6572206973206e6f74206f7760008201527f6e6572206e6f7220617070726f76656420666f7220616c6c0000000000000000602082015250565b7f4552433732313a2062616c616e636520717565727920666f7220746865207a6560008201527f726f206164647265737300000000000000000000000000000000000000000000602082015250565b7f4552433732313a206f776e657220717565727920666f72206e6f6e657869737460008201527f656e7420746f6b656e0000000000000000000000000000000000000000000000602082015250565b7f4552433732313a206d696e7420746f20746865207a65726f2061646472657373600082015250565b7f4552433732313a20617070726f76656420717565727920666f72206e6f6e657860008201527f697374656e7420746f6b656e0000000000000000000000000000000000000000602082015250565b7f4552433732313a207472616e73666572206f6620746f6b656e2074686174206960008201527f73206e6f74206f776e0000000000000000000000000000000000000000000000602082015250565b7f4552433732313a20617070726f76616c20746f2063757272656e74206f776e6560008201527f7200000000000000000000000000000000000000000000000000000000000000602082015250565b7f616c7265616479207369676e6564000000000000000000000000000000000000600082015250565b7f4552433732313a207472616e736665722063616c6c6572206973206e6f74206f60008201527f776e6572206e6f7220617070726f766564000000000000000000000000000000602082015250565b612a7781612482565b8114612a8257600080fd5b50565b612a8e81612494565b8114612a9957600080fd5b50565b612aa5816124a0565b8114612ab057600080fd5b50565b612abc816124ec565b8114612ac757600080fd5b5056fe697066733a2f2f516d58474767586a4d393131314b6b6b4572435756316f72346a316e59335044556e4b716256784547376652466aa2646970667358221220ca25d9a46289052c162d166ca212fd91007400e7818164eb198eacad098a097864736f6c63430008040033",
  "linkReferences": {},
  "deployedLinkReferences": {}
}